{
  "contractName": "CredentialManager",
  "abi": [
    {
      "constant": true,
      "inputs": [],
      "name": "getSender",
      "outputs": [
        {
          "name": "",
          "type": "address"
        }
      ],
      "payable": false,
      "stateMutability": "view",
      "type": "function"
    },
    {
      "constant": true,
      "inputs": [
        {
          "name": "role",
          "type": "uint256"
        },
        {
          "name": "user",
          "type": "address"
        }
      ],
      "name": "getRole",
      "outputs": [
        {
          "name": "",
          "type": "bool"
        }
      ],
      "payable": false,
      "stateMutability": "view",
      "type": "function"
    },
    {
      "constant": false,
      "inputs": [
        {
          "name": "role",
          "type": "uint256"
        },
        {
          "name": "user",
          "type": "address"
        }
      ],
      "name": "setRole",
      "outputs": [],
      "payable": false,
      "stateMutability": "nonpayable",
      "type": "function"
    },
    {
      "constant": true,
      "inputs": [],
      "name": "getMe",
      "outputs": [
        {
          "name": "",
          "type": "address"
        }
      ],
      "payable": false,
      "stateMutability": "view",
      "type": "function"
    },
    {
      "constant": true,
      "inputs": [
        {
          "name": "_check",
          "type": "address"
        }
      ],
      "name": "isRegis",
      "outputs": [
        {
          "name": "",
          "type": "bool"
        }
      ],
      "payable": false,
      "stateMutability": "view",
      "type": "function"
    },
    {
      "inputs": [],
      "payable": false,
      "stateMutability": "nonpayable",
      "type": "constructor"
    }
  ],
  "bytecode": "0x6060604052341561000f57600080fd5b336000806101000a81548173ffffffffffffffffffffffffffffffffffffffff021916908373ffffffffffffffffffffffffffffffffffffffff1602179055506103938061005e6000396000f30060606040526004361061006d576000357c0100000000000000000000000000000000000000000000000000000000900463ffffffff1680635e01eb5a1461007257806393552a3d146100c7578063aa03f62514610121578063c11e1ff314610163578063d26563e2146101b8575b600080fd5b341561007d57600080fd5b610085610209565b604051808273ffffffffffffffffffffffffffffffffffffffff1673ffffffffffffffffffffffffffffffffffffffff16815260200191505060405180910390f35b34156100d257600080fd5b610107600480803590602001909190803573ffffffffffffffffffffffffffffffffffffffff16906020019091905050610211565b604051808215151515815260200191505060405180910390f35b341561012c57600080fd5b610161600480803590602001909190803573ffffffffffffffffffffffffffffffffffffffff16906020019091905050610279565b005b341561016e57600080fd5b6101766102e5565b604051808273ffffffffffffffffffffffffffffffffffffffff1673ffffffffffffffffffffffffffffffffffffffff16815260200191505060405180910390f35b34156101c357600080fd5b6101ef600480803573ffffffffffffffffffffffffffffffffffffffff1690602001909190505061030e565b604051808215151515815260200191505060405180910390f35b600033905090565b60006001600084815260200190815260200160002060008373ffffffffffffffffffffffffffffffffffffffff1673ffffffffffffffffffffffffffffffffffffffff16815260200190815260200160002060009054906101000a900460ff16905092915050565b600180600084815260200190815260200160002060008373ffffffffffffffffffffffffffffffffffffffff1673ffffffffffffffffffffffffffffffffffffffff16815260200190815260200160002060006101000a81548160ff0219169083151502179055505050565b60008060009054906101000a900473ffffffffffffffffffffffffffffffffffffffff16905090565b60008173ffffffffffffffffffffffffffffffffffffffff166000809054906101000a900473ffffffffffffffffffffffffffffffffffffffff1673ffffffffffffffffffffffffffffffffffffffff161490509190505600a165627a7a723058208d42ccf9f64555ab505cfae06fcd793a10ba094a4ba7061e6caa211b0bb77c2d0029",
  "source": "pragma solidity ^0.4.18;\r\n\r\ncontract CredentialManager {\r\n    address private me;\r\n    enum Roles {\r\n        nonRegistered,  // 0 ~ because solidity no N.A.\r\n        Umum,           // 1\r\n        Notaris,        // 2\r\n        Kelurahan,      // 3\r\n        Kecamatan,      // 4\r\n        Polisi,         // 5\r\n        Pemda,          // 6\r\n        Pajak,          // 7\r\n        Ppat,           // 8\r\n        Bpn             // 9\r\n    }\r\n\r\n    mapping(uint => mapping(address => bool)) private userRoles;\r\n\r\n    function isRegis(address _check) constant public returns(bool) {\r\n        return (me == _check);\r\n    }\r\n\r\n    function CredentialManager() public {\r\n        me = msg.sender;\r\n    }\r\n\r\n    function getMe() constant public returns (address) {\r\n        return me;\r\n    }\r\n\r\n    function getSender() constant public returns (address) {\r\n        return msg.sender;\r\n    }\r\n\r\n    function setRole(uint role, address user) public {\r\n        userRoles[role][user] = true;\r\n    }\r\n\r\n    function getRole(uint role, address user) constant public returns (bool) {\r\n        return userRoles[role][user];\r\n    }\r\n}",
  "sourcePath": "C:\\finbot\\testcred\\contracts\\CredentialManager.sol",
  "compiler": {
    "name": "solc",
    "version": "0.4.18+commit.9cf6e910.Emscripten.clang"
  },
  "schemaVersion": "1.0.1",
  "updatedAt": "2018-02-22T05:20:05.578Z"
}