{
  "contractName": "CredentialManager",
  "abi": [
    {
      "constant": true,
      "inputs": [],
      "name": "getSender",
      "outputs": [
        {
          "name": "",
          "type": "address"
        }
      ],
      "payable": false,
      "stateMutability": "view",
      "type": "function"
    },
    {
      "constant": true,
      "inputs": [],
      "name": "getMe",
      "outputs": [
        {
          "name": "",
          "type": "address"
        }
      ],
      "payable": false,
      "stateMutability": "view",
      "type": "function"
    },
    {
      "constant": true,
      "inputs": [
        {
          "name": "_check",
          "type": "address"
        }
      ],
      "name": "isRegis",
      "outputs": [
        {
          "name": "",
          "type": "bool"
        }
      ],
      "payable": false,
      "stateMutability": "view",
      "type": "function"
    },
    {
      "inputs": [],
      "payable": false,
      "stateMutability": "nonpayable",
      "type": "constructor"
    }
  ],
  "bytecode": "0x6060604052341561000f57600080fd5b336000806101000a81548173ffffffffffffffffffffffffffffffffffffffff021916908373ffffffffffffffffffffffffffffffffffffffff16021790555061020d8061005e6000396000f300606060405260043610610057576000357c0100000000000000000000000000000000000000000000000000000000900463ffffffff1680635e01eb5a1461005c578063c11e1ff3146100b1578063d26563e214610106575b600080fd5b341561006757600080fd5b61006f610157565b604051808273ffffffffffffffffffffffffffffffffffffffff1673ffffffffffffffffffffffffffffffffffffffff16815260200191505060405180910390f35b34156100bc57600080fd5b6100c461015f565b604051808273ffffffffffffffffffffffffffffffffffffffff1673ffffffffffffffffffffffffffffffffffffffff16815260200191505060405180910390f35b341561011157600080fd5b61013d600480803573ffffffffffffffffffffffffffffffffffffffff16906020019091905050610188565b604051808215151515815260200191505060405180910390f35b600033905090565b60008060009054906101000a900473ffffffffffffffffffffffffffffffffffffffff16905090565b60008173ffffffffffffffffffffffffffffffffffffffff166000809054906101000a900473ffffffffffffffffffffffffffffffffffffffff1673ffffffffffffffffffffffffffffffffffffffff161490509190505600a165627a7a723058208a585e02c090d5708b434f63c00dbf7331cc03ebfdc7622f97589bf6e1d2563b0029",
  "source": "pragma solidity ^0.4.18;\r\n\r\ncontract CredentialManager {\r\n    address private me;\r\n\r\n    function isRegis(address _check) constant public returns(bool) {\r\n        return (me == _check);\r\n    }\r\n\r\n    function CredentialManager() public {\r\n        me = msg.sender;\r\n    }\r\n\r\n    function getMe() constant public returns (address) {\r\n        return me;\r\n    }\r\n\r\n    function getSender() constant public returns (address) {\r\n        return msg.sender;\r\n    }\r\n}",
  "sourcePath": "C:\\finbot\\testcred\\contracts\\CredentialManager.sol",
  "compiler": {
    "name": "solc",
    "version": "0.4.18+commit.9cf6e910.Emscripten.clang"
  },
  "schemaVersion": "1.0.1",
  "updatedAt": "2018-02-20T08:06:09.414Z"
}