{
  "contractName": "Order",
  "abi": [
    {
      "constant": true,
      "inputs": [],
      "name": "getData",
      "outputs": [
        {
          "name": "",
          "type": "uint256"
        }
      ],
      "payable": false,
      "stateMutability": "view",
      "type": "function"
    },
    {
      "constant": false,
      "inputs": [
        {
          "name": "x",
          "type": "uint256"
        }
      ],
      "name": "setData",
      "outputs": [],
      "payable": false,
      "stateMutability": "nonpayable",
      "type": "function"
    },
    {
      "constant": true,
      "inputs": [],
      "name": "getSender",
      "outputs": [
        {
          "name": "",
          "type": "address"
        }
      ],
      "payable": false,
      "stateMutability": "view",
      "type": "function"
    },
    {
      "constant": false,
      "inputs": [
        {
          "name": "_cr",
          "type": "address"
        }
      ],
      "name": "setCred",
      "outputs": [],
      "payable": false,
      "stateMutability": "nonpayable",
      "type": "function"
    },
    {
      "inputs": [],
      "payable": false,
      "stateMutability": "nonpayable",
      "type": "constructor"
    }
  ],
  "bytecode": "0x6060604052341561000f57600080fd5b60008060146101000a81548160ff021916908315150217905550610378806100386000396000f300606060405260043610610062576000357c0100000000000000000000000000000000000000000000000000000000900463ffffffff1680633bc5de30146100675780635b4b73a9146100905780635e01eb5a146100b3578063d2a601d014610108575b600080fd5b341561007257600080fd5b61007a610141565b6040518082815260200191505060405180910390f35b341561009b57600080fd5b6100b1600480803590602001909190505061014b565b005b34156100be57600080fd5b6100c661023f565b604051808273ffffffffffffffffffffffffffffffffffffffff1673ffffffffffffffffffffffffffffffffffffffff16815260200191505060405180910390f35b341561011357600080fd5b61013f600480803573ffffffffffffffffffffffffffffffffffffffff169060200190919050506102ee565b005b6000600154905090565b6000809054906101000a900473ffffffffffffffffffffffffffffffffffffffff1673ffffffffffffffffffffffffffffffffffffffff1663d26563e2336000604051602001526040518263ffffffff167c0100000000000000000000000000000000000000000000000000000000028152600401808273ffffffffffffffffffffffffffffffffffffffff1673ffffffffffffffffffffffffffffffffffffffff168152602001915050602060405180830381600087803b151561020f57600080fd5b6102c65a03f1151561022057600080fd5b50505060405180519050151561023557600080fd5b8060018190555050565b60008060009054906101000a900473ffffffffffffffffffffffffffffffffffffffff1673ffffffffffffffffffffffffffffffffffffffff16635e01eb5a6000604051602001526040518163ffffffff167c0100000000000000000000000000000000000000000000000000000000028152600401602060405180830381600087803b15156102ce57600080fd5b6102c65a03f115156102df57600080fd5b50505060405180519050905090565b806000806101000a81548173ffffffffffffffffffffffffffffffffffffffff021916908373ffffffffffffffffffffffffffffffffffffffff1602179055506001600060146101000a81548160ff021916908315150217905550505600a165627a7a723058204ca03f0d4754f6fabe593e8ca05cee51b4c2bb1e7561b9e589581756f619adf30029",
  "source": "pragma solidity ^0.4.18;\r\n\r\nimport \"./CredentialManager.sol\";\r\n\r\ncontract Order {\r\n    CredentialManager private cred;\r\n    bool private isCredSet;\r\n    uint private data;\r\n\r\n    function Order() {\r\n        isCredSet = false;\r\n    }\r\n\r\n    function setCred(address _cr) public {\r\n        cred = CredentialManager(_cr);\r\n        isCredSet = true;\r\n    }\r\n\r\n    function setData(uint x) public {\r\n        require(cred.isRegis(msg.sender));\r\n        data = x;\r\n    }\r\n\r\n    function getSender() constant public returns(address) {\r\n        return cred.getSender();\r\n    }\r\n\r\n    function getData() constant public returns (uint) {\r\n        return data;\r\n    }\r\n}",
  "sourcePath": "C:\\finbot\\testcred\\contracts\\Order.sol",
  "compiler": {
    "name": "solc",
    "version": "0.4.18+commit.9cf6e910.Emscripten.clang"
  },
  "schemaVersion": "1.0.1",
  "updatedAt": "2018-02-20T08:06:09.419Z"
}