{
  "contractName": "Order",
  "abi": [
    {
      "constant": false,
      "inputs": [
        {
          "name": "_role",
          "type": "uint256"
        },
        {
          "name": "_authorizer",
          "type": "address"
        }
      ],
      "name": "setStatus",
      "outputs": [],
      "payable": false,
      "stateMutability": "nonpayable",
      "type": "function"
    },
    {
      "constant": true,
      "inputs": [],
      "name": "getData",
      "outputs": [
        {
          "name": "",
          "type": "uint256"
        }
      ],
      "payable": false,
      "stateMutability": "view",
      "type": "function"
    },
    {
      "constant": false,
      "inputs": [
        {
          "name": "x",
          "type": "uint256"
        }
      ],
      "name": "setData",
      "outputs": [],
      "payable": false,
      "stateMutability": "nonpayable",
      "type": "function"
    },
    {
      "constant": true,
      "inputs": [
        {
          "name": "_role",
          "type": "uint256"
        }
      ],
      "name": "getStatus",
      "outputs": [
        {
          "name": "",
          "type": "address"
        },
        {
          "name": "",
          "type": "bool"
        },
        {
          "name": "",
          "type": "uint256"
        },
        {
          "name": "",
          "type": "bool"
        }
      ],
      "payable": false,
      "stateMutability": "view",
      "type": "function"
    },
    {
      "constant": true,
      "inputs": [],
      "name": "getSender",
      "outputs": [
        {
          "name": "",
          "type": "address"
        }
      ],
      "payable": false,
      "stateMutability": "view",
      "type": "function"
    },
    {
      "constant": false,
      "inputs": [
        {
          "name": "_cr",
          "type": "address"
        }
      ],
      "name": "setCred",
      "outputs": [],
      "payable": false,
      "stateMutability": "nonpayable",
      "type": "function"
    },
    {
      "inputs": [],
      "payable": false,
      "stateMutability": "nonpayable",
      "type": "constructor"
    }
  ],
  "bytecode": "0x6060604052341561000f57600080fd5b60008060146101000a81548160ff021916908315150217905550610675806100386000396000f300606060405260043610610078576000357c0100000000000000000000000000000000000000000000000000000000900463ffffffff16806306b1c8f71461007d5780633bc5de30146100bf5780635b4b73a9146100e85780635c622a0e1461010b5780635e01eb5a1461018b578063d2a601d0146101e0575b600080fd5b341561008857600080fd5b6100bd600480803590602001909190803573ffffffffffffffffffffffffffffffffffffffff16906020019091905050610219565b005b34156100ca57600080fd5b6100d2610393565b6040518082815260200191505060405180910390f35b34156100f357600080fd5b610109600480803590602001909190505061039d565b005b341561011657600080fd5b61012c6004808035906020019091905050610491565b604051808573ffffffffffffffffffffffffffffffffffffffff1673ffffffffffffffffffffffffffffffffffffffff168152602001841515151581526020018381526020018215151515815260200194505050505060405180910390f35b341561019657600080fd5b61019e61053c565b604051808273ffffffffffffffffffffffffffffffffffffffff1673ffffffffffffffffffffffffffffffffffffffff16815260200191505060405180910390f35b34156101eb57600080fd5b610217600480803573ffffffffffffffffffffffffffffffffffffffff169060200190919050506105eb565b005b6000809054906101000a900473ffffffffffffffffffffffffffffffffffffffff1673ffffffffffffffffffffffffffffffffffffffff166393552a3d83836000604051602001526040518363ffffffff167c0100000000000000000000000000000000000000000000000000000000028152600401808381526020018273ffffffffffffffffffffffffffffffffffffffff1673ffffffffffffffffffffffffffffffffffffffff16815260200192505050602060405180830381600087803b15156102e557600080fd5b6102c65a03f115156102f657600080fd5b50505060405180519050151561030b57600080fd5b806002600084815260200190815260200160002060000160016101000a81548173ffffffffffffffffffffffffffffffffffffffff021916908373ffffffffffffffffffffffffffffffffffffffff16021790555060016002600084815260200190815260200160002060000160006101000a81548160ff0219169083151502179055505050565b6000600154905090565b6000809054906101000a900473ffffffffffffffffffffffffffffffffffffffff1673ffffffffffffffffffffffffffffffffffffffff1663d26563e2336000604051602001526040518263ffffffff167c0100000000000000000000000000000000000000000000000000000000028152600401808273ffffffffffffffffffffffffffffffffffffffff1673ffffffffffffffffffffffffffffffffffffffff168152602001915050602060405180830381600087803b151561046157600080fd5b6102c65a03f1151561047257600080fd5b50505060405180519050151561048757600080fd5b8060018190555050565b6000806000806002600086815260200190815260200160002060000160019054906101000a900473ffffffffffffffffffffffffffffffffffffffff166002600087815260200190815260200160002060000160009054906101000a900460ff1660026000888152602001908152602001600020600101546002600089815260200190815260200160002060020160009054906101000a900460ff1693509350935093509193509193565b60008060009054906101000a900473ffffffffffffffffffffffffffffffffffffffff1673ffffffffffffffffffffffffffffffffffffffff16635e01eb5a6000604051602001526040518163ffffffff167c0100000000000000000000000000000000000000000000000000000000028152600401602060405180830381600087803b15156105cb57600080fd5b6102c65a03f115156105dc57600080fd5b50505060405180519050905090565b806000806101000a81548173ffffffffffffffffffffffffffffffffffffffff021916908373ffffffffffffffffffffffffffffffffffffffff1602179055506001600060146101000a81548160ff021916908315150217905550505600a165627a7a72305820593e626c4327ca963b7de1e2d8e58910381fd7b22393940f8a1010b77cbd31d30029",
  "source": "pragma solidity ^0.4.18;\r\n\r\nimport \"./CredentialManager.sol\";\r\n\r\ncontract Order {\r\n    CredentialManager private cred;\r\n    bool private isCredSet;\r\n    uint private data;\r\n\r\n    struct StatBadan {\r\n        bool status; //true = sudah verified + bayar, false = belum selesai\r\n        address badan;\r\n        uint256 biaya;\r\n        bool isPaid;\r\n    }\r\n\r\n    enum Roles {\r\n        nonRegistered,  // 0 ~ because solidity no N.A.\r\n        Umum,           // 1\r\n        Notaris,        // 2\r\n        Kelurahan,      // 3\r\n        Kecamatan,      // 4\r\n        Polisi,         // 5\r\n        Pemda,          // 6\r\n        Pajak,          // 7\r\n        Ppat,           // 8\r\n        Bpn             // 9\r\n    }\r\n\r\n    mapping(uint => StatBadan) approval;\r\n\r\n    StatBadan private ppat;\r\n\r\n    function Order() {\r\n        isCredSet = false;\r\n    }\r\n\r\n    function setCred(address _cr) public {\r\n        cred = CredentialManager(_cr);\r\n        isCredSet = true;\r\n    }\r\n\r\n    function setData(uint x) public {\r\n        require(cred.isRegis(msg.sender));\r\n        data = x;\r\n    }\r\n\r\n    function getSender() constant public returns(address) {\r\n        return cred.getSender();\r\n    }\r\n\r\n    function getData() constant public returns (uint) {\r\n        return data;\r\n    }\r\n\r\n    function setStatus(uint _role, address _authorizer) public {\r\n        require(cred.getRole(_role,_authorizer));\r\n        approval[_role].badan = _authorizer;\r\n        approval[_role].status = true;\r\n    }\r\n\r\n    function getStatus(uint _role) constant public returns (address, bool, uint256, bool) {\r\n        return (\r\n            approval[_role].badan,\r\n            approval[_role].status,\r\n            approval[_role].biaya,\r\n            approval[_role].isPaid\r\n        );\r\n    }\r\n}",
  "sourcePath": "C:\\finbot\\testcred\\contracts\\Order.sol",
  "compiler": {
    "name": "solc",
    "version": "0.4.18+commit.9cf6e910.Emscripten.clang"
  },
  "schemaVersion": "1.0.1",
  "updatedAt": "2018-02-22T05:20:05.578Z"
}